:020000040800F2
:10000000800D002001010008EF19000849150008C3
:10001000ED190008C50100081D23000800000000BC
:100020000000000000000000000000002B1E00087F
:10003000F101000800000000F11900087521000816
:100040001B0100081B0100081B0100081B01000820
:100050001B0100081B0100081B0100081B01000810
:100060001B0100081B0100081B0100081B01000800
:100070001B0100081B0100081B0100081B010008F0
:100080001B0100081B0100081B0100081B010008E0
:100090001B0100081B0100081B0100081B010008D0
:1000A0001B0100081B0100081B0100081B010008C0
:1000B0001B0100081B0100081B0100081B010008B0
:1000C0001B0100081B0100081B0100081B010008A0
:1000D0001B0100081B0100081B0100081B01000890
:1000E0001B0100081B0100081B010008DFF80CD0F1
:1000F00000F056F800480047692A0008800D0020EB
:100100000648804706480047FEE7FEE7FEE7FEE7B1
:10011000FEE7FEE7FEE7FEE7FEE7FEE7DD2100087B
:10012000ED000008202A04DB203A21FA02F0002129
:10013000704721FA02F3D040C2F1200291400843F7
:100140001946704740EA01039B0703D009E008C93C
:10015000121F08C0042AFAD203E011F8013B00F88C
:10016000013B521EF9D27047D2B201E000F8012BD8
:10017000491EFBD270470022F6E710B513460A4627
:1001800004461946FFF7F0FF204610BD034611F85C
:10019000012B00F8012B002AF9D118467047000006
:1001A000064C074D06E0E06840F0010394E80700C4
:1001B00098471034AC42F6D3FFF79CFF542D00084B
:1001C000742D0008FEE730B504460020651804E0F1
:1001D00014F8011B80B202F091F8AC42F8D380B25F
:1001E000002102F08BF8BDE83040002102F086B813
:1001F0007047704770B588B00446002607965123B3
:10020000184A19A1002001F035FD00F0EBFB542342
:10021000144A15A1002001F02DFD1748001B850A86
:100220005723104A10A1002001F024FD03960594E5
:1002300001200490069507A903A800F0A5FA04463A
:100240000798CDE900045D23064A0CA1002001F0C7
:1002500011FD00F063FB14B1012008B070BD002057
:10026000FBE70000182B00085B25735D3C25643E0E
:100270002D2D2D2D0D0A0000000001085B25735D5A
:100280003C25643E2D2D506167654572726F723A50
:100290003078253038782D7374617475733A25641D
:1002A0002D0D0A0000B587B000F09CFB684600F0F9
:1002B000E9FA00F033FB02994FF6F070884310B171
:1002C000022007B000BD0020FBE7000010B500F0E1
:1002D00089FB03493420C860BDE8104000F01EBB14
:1002E000002002402DE9F04105460E461746002445
:1002F0007923134A13A1002001F0BCFC00F072FB2B
:10030000DFF8508013E056F824200023294602200D
:1003100000F022FB10B10320BDE8F08156F8241054
:100320002868884201D00220F6E72D1D641CBC42DB
:1003300001D24545E7D900F0F1FA0020ECE70000D2
:10034000272B00085B25735D3C25643E2D2D2D2D4C
:100350000D0A0000FCFF000810B58EB00446CA2349
:10036000154A16A1002001F085FC684600F08AFAC3
:10037000B4B10020089001200790A5208DF82C0032
:100380009DF811008DF82D00029C4FF6F07004438B
:1003900000F028FB00F0CEFA00F04AFA10B105E0B8
:1003A0000120E7E7099407A800F07AFA10B10420C9
:1003B0000EB010BD0020FBE7362B00085B25735DF7
:1003C0003C25643E2D2D2D2D0D0A000006490020F0
:1003D000C8610648016941F004010161016941F009
:1003E0004001016170470000200000200020024011
:1003F0002DE9F047044600F0C3F82043C4B2C0F32F
:100400000725C0F30746070E4CF25039484600F066
:100410007FF900283DD12049C86100F009FA002881
:1004200037D1DFF87880D8F8101041F01001C8F803
:100430001010FF2C06D01A4801882143018048463D
:1004400000F066F948B9FF2D07D01548801C0188D7
:1004500029430180484600F05BF948B9FF2E07D0D8
:100460000F48001D018831430180484600F050F9D3
:1004700048B9FF2F07D00A48801D01883943018001
:10048000484600F045F9D8F8101021F01001C8F8DE
:100490001010BDE8F087000020000020002002407E
:1004A00008F8FF1F2DE9F047044600F069F8A04363
:1004B000C4B2C0F30725C0F30746070E4CF250390B
:1004C000484600F025F900283DD12049C86100F0D8
:1004D000AFF9002837D1DFF87880D8F8101041F054
:1004E0001001C8F81010FF2C06D01A4801882140CE
:1004F0000180484600F00CF948B9FF2D07D0154897
:10050000801C018829400180484600F001F948B963
:10051000FF2E07D00F48001D01883140018048465A
:1005200000F0F6F848B9FF2F07D00A48801D01886F
:1005300039400180484600F0EBF8D8F8101021F05F
:100540001001C8F81010BDE8F0870000200000205E
:100550000020024008F8FF1FA5200449C96901F0E6
:100560000201022900D10020704700000020024053
:100570000248C069C0F382007047000000200240BA
:100580000148006A70470000002002402DE9F04158
:1005900006460D464CF25037384600F0B9F80028B0
:1005A0000ED10849C861084C206940F01000206154
:1005B0003580384600F0ACF8216921F01001216146
:1005C000BDE8F081200000200020024070B5054603
:1005D0004CF25036304600F09BF8002820D11149EB
:1005E000C861114C206940F020002061206940F072
:1005F00040002061304600F08BF8216921F0200195
:10060000216100280CD1206940F0100020610748CA
:100610000580304600F07CF8216921F0100121614D
:1006200070BD0000200000200020024000F8FF1FE5
:1006300070B505464CF25036304600F069F8002897
:1006400011D10949C861094C206940F010002061AE
:10065000074945F088000880304600F059F82169C4
:1006600021F01001216170BD200000200020024017
:1006700002F8FF1F064A0021D16106490A6942F0CB
:1006800002020A614861086940F040000861704751
:100690002000002000200240044B0022DA61044ABE
:1006A000136943F0010313610180704720000020AB
:1006B0000020024000201449CA68D306134A04D51A
:1006C000D06940F00200D0611020CB685B0705D5EF
:1006D000D36943F00103D36140F00400CB69DB0729
:1006E00007D0D36943F00403D361CA6922F0010241
:1006F000CA61A0F58072013A01D0C8607047C8692C
:1007000020F00100C8617047002002402000002056
:1007100070B5044600F072FA0546114E09E0601CFF
:1007200007D024B100F06AFA401BA04201D903208F
:1007300070BDF068C007F2D1F068800601D52020B6
:10074000F060F068C00605D4F069C00702D1F06817
:10075000400703D5FFF7AEFF012070BD002070BD3C
:100760000020024070B5044600F048FA0546601CBF
:1007700002D004480078044400F040FA401BA04234
:10078000FAD370BD040000202DE9F04705460F465E
:100790004FF0010ADFF8908098F8180001280DD07A
:1007A000012088F818002868204E4CF250390228A1
:1007B00007D04846FFF7ACFF98B12FE00220BDE814
:1007C000F0874846FFF7A4FFF8B90120FFF7FEFDC8
:1007D0004846FFF79DFF8246306920F004003061F3
:1007E0001CE04FF0FF303860AC6811E02046FFF7A6
:1007F00041FF4846FFF78CFF8246306920F0020037
:1008000030615FEA0A0001D03C6007E004F58064D3
:10081000D5E9020100EB8120A042E7D8002088F84A
:1008200018005046CBE700002000002000200240C6
:1008300070B5FFF791FEC5B24CF250363046FFF767
:1008400067FF002818D10D49C8610D4C206940F0A0
:1008500020002061206940F0400020613046FFF711
:1008600057FF216921F020012161002804D1284689
:10087000BDE87040FFF7AABE70BD00002000002058
:100880000020024010B5044607202060FFF778FEE4
:10089000A060FFF761FE2074FFF76AFE607410BD70
:1008A00070B5044601201C4D297E01290FD001217D
:1008B000297621784FF00006C9070ED0606801281C
:1008C00007D0A068FFF794FD38B12E7670BD0220E6
:1008D00070BDA068FFF7E6FDF6E72178890705D52A
:1008E000207CFFF773FE08B12E7670BD2178490792
:1008F00005D5607CFFF79CFE08B12E7670BD21788F
:10090000090706D5217E6069FFF740FE08B12E7603
:1009100070BD2E7670BD00002000002003480169E4
:1009200041F080010161002070470000002002407A
:1009300000F0DAB905480169890505D404498160E8
:100940000449816000207047012070470020024068
:1009500023016745AB89EFCD2DE9F05F0746884657
:1009600015461E460024DFF8749099F818000128F7
:1009700009D0012089F818004CF2503B5846FFF787
:10098000C7FE18B126E00220BDE8F09F012F05D078
:10099000022F05D00427DFF848A019E00127FAE765
:1009A0000227F8E7220128463146FFF7BBFB81B258
:1009B00008EB4400FFF770FE5846FFF7A9FEDAF88F
:1009C000101021F00101CAF8101018B9641CE4B22B
:1009D000BC42E7D3002189F81810D5E72000002099
:1009E00000200240002006490A69120607D5054A80
:1009F0004A60054A4A600969090600D50120704726
:100A00000020024023016745AB89EFCD2DE9F84F67
:100A100000240023DFF8C4914FF00F0809F1040A05
:100A20000AF1040B0BF1040ED1E00127A7403A4074
:100A3000BA4275D1DFF8A8C14D68A5EB0C06654533
:100A40002BD00DDC032D34D005DC35B3012D19D0AE
:100A5000022D2FD11BE0112D16D0122D2AD119E015
:100A6000B6F5881F19D006DCB6F5803F15D0B6F56F
:100A7000801F1FD111E0B6F5001F0ED0B6F5041F80
:100A800018D10AE0CB6815E0CB681B1D12E0CB68DB
:100A900008330FE0CB680C330CE08B6823B1012BDB
:100AA00004D00823476105E0042303E0082307611D
:100AB00000E00023FF2A01D8054601E000F104050B
:100AC00002D84FEA840603E0A4F108064FEA86063E
:100AD0002F6808FA06FC27EA0C0703FA06F647EA2D
:100AE00006072F604D68ED0070D53E4DAE6946F0AB
:100AF0000106AE61AD6905F0010500953A4D24F09F
:100B000003067719BE68A5072D0F08FA05FC26EA2B
:100B10000C06DFF8D8C0604503D14FF0000C17E099
:100B200054E0DFF8CCC0604502D14FF0010C0FE07B
:100B3000DFF8C0C0604502D14FF0020C08E0DFF8DA
:100B4000B8C0604502D14FF0030C01E04FF0040C37
:100B50000CFA05FC4CEA060CC7F808C04D68ED031A
:100B600005D5D9F800501543C9F8005004E0D9F86C
:100B700000509543C9F800504D68AD0305D5DAF82B
:100B800000501543CAF8005004E0DAF800509543CD
:100B9000CAF800504D68ED0205D5DBF8005015434A
:100BA000CBF8005004E0DBF800509543CBF8005040
:100BB0004D68AD0205D5DEF800501543CEF8005063
:100BC00004E0DEF800509543CEF80050641C0A683B
:100BD00032FA04F57FF429AFBDE8F88F0004014034
:100BE0000000111000100240000001400008014008
:100BF000000C0140001001400014014001488068D1
:100C00007047000004000020024881680278114407
:100C1000816070470400002010B50748016841F06A
:100C200010010160032000F04DF80F2000F006F8DD
:100C300000F026F8002010BD0020024070B50446E8
:100C40000D4D4FF47A712878B1FBF0F00B4909682B
:100C5000B1FBF0F000F026FB08B1012070BD102CB4
:100C600007D200222146501E00F00CF86C600020D4
:100C700070BD012070BD00000400002000000020B5
:100C800070470000F0B40D460D4B1B68C3F3022300
:100C9000C3F10704042C00D90424191D072901D22B
:100CA000002300E0DB1E012606FA04F1491E29405C
:100CB00099409E40761E16403143F0BC01F0B5BE0F
:100CC0000CED00E000F00701054A10684FF6FF0345
:100CD000184040EA012003490843106070470000B3
:100CE0000CED00E00000FA05BFF34F8F05480168E6
:100CF000054A01F4E06111430160BFF34F8F00BF6B
:100D0000FDE700000CED00E00400FA052DE9F047D6
:100D100004460D46002C17D0DFF83081D8F80000CB
:100D200000F00700A84211D2D8F8000020F0070018
:100D30002843C8F80000D8F8000000F00700A842D7
:100D400004D00120BDE8F0870120FBE72068404E79
:100D5000810712D5400703D5706840F4E0607060E9
:100D60002078000703D5706840F4605070607068A8
:100D7000A16820F0F000084370602078C0072CD0F4
:100D80006068012806D0022809D0316889070BD491
:100D90000120D7E73168890306D40120D2E7316802
:100DA000890101D40120CDE7716821F003010143DD
:100DB0007160FFF723FF074641F2883906E0FFF72D
:100DC0001DFFC01B484501D90320BBE7706861685F
:100DD00000F00C00B0EB810FF1D1D8F8000000F06A
:100DE0000700A8420ED9D8F8000020F007002843D9
:100DF000C8F80000D8F8000000F00700A84201D0B1
:100E000001209FE72078400705D57068E16820F44D
:100E1000E060084370602078000706D5706821699B
:100E200020F4605040EAC100706000F03FF8716843
:100E3000084AC1F30311515CC840074908600748DC
:100E40000068FFF7FBFE00207CE700000020024066
:100E500000100240002B00080000002008000020C5
:100E600001480068704700000000002000B5FFF74F
:100E7000F7FF04494968044AC1F30221515CC840A4
:100E800000BD000000100240102B000800B5FFF765
:100E9000E7FF04494968044AC1F3C221515CC840D4
:100EA00000BD000000100240102B000885B014A007
:100EB00090E80E00C068CDE902230191049014A0CF
:100EC00000680090134B5968134801F00C02042A83
:100ED00010D0082A0ED101A8C1F38342805CC90357
:100EE0000AD55968C1F340411DF801100A4A504320
:100EF000B0FBF1F005B0704708494843FAE700003D
:100F000002030405060708090A0B0C0D0E0F10104A
:100F1000010200000010024000127A0000093D00AA
:100F20002DE9F84F0446002C0ED02078D94DC0078B
:100F30005ED06868C0F3810001280BD06868C0F3F8
:100F40008100022803D00CE00120BDE8F88F68681A
:100F5000C00306D5286880034AD56068A8BB012075
:100F6000F3E76068B0F5803F11D0A8B1B0F5A02FCD
:100F70001BD0286820F480302860286820F4802066
:100F80002860606830B3FFF739FE06461EE0286827
:100F900040F480302860F4E7286820F4803028602E
:100FA000286820F480202860EBE7286840F480203F
:100FB0002860286840F480302860E2E7FFF71EFED2
:100FC000801B642802D90320BFE711E02868800352
:100FD000F4D50DE0FFF712FE064606E0FFF70EFE21
:100FE000801B642801D90320AFE728688003F5D46B
:100FF0002078DFF8A48280074FF0010A4FF0000943
:1010000045D5686810F00C0F07D06868C0F3810000
:10101000022812D16868C0030FD42868800704D55D
:101020002069012801D001208FE72868616920F03C
:10103000F80040EAC100286029E02069B8B1C8F88A
:1010400000A0FFF7DBFD064606E0FFF7D7FD801B9B
:10105000022801D9032078E728688007F5D5286899
:10106000616920F0F80040EAC10028600FE0C8F88C
:101070000090FFF7C3FD064606E0FFF7BFFD801BAB
:10108000022801D9032060E728688007F5D420787A
:10109000000726D58148A16999B1C0F800A0FFF7E3
:1010A000ADFD064606E0FFF7A9FD801B022801D929
:1010B00003204AE7686A8007F5D5012000F0ECFCC0
:1010C0000FE0C0F80090FFF799FD064606E0FFF735
:1010D00095FD801B022801D9032036E7686A800746
:1010E000F5D42078400773D50026E869C00008D4FD
:1010F000E86940F08050E861E86900F080500090B5
:101100000126DFF89CB1DBF80000C00514D4DBF841
:10111000000040F48070CBF80000FFF76FFD074639
:1011200006E0FFF76BFDC01B642801D903200CE724
:10113000DBF80000C005F4D5E068012812D0B0B19A
:1011400005281DD0286A20F001002862286A20F0B6
:1011500004002862E06841F2883B28B3FFF74EFDA7
:1011600007461DE0286A40F001002862F2E7286A7D
:1011700020F001002862286A20F004002862E9E7D4
:10118000286A40F004002862286A40F001002862C2
:10119000E0E7FFF733FDC01B584501D90320D4E633
:1011A000286A8007F5D50DE0FFF728FD074606E021
:1011B000FFF724FDC01B584501D90320C5E6286A66
:1011C0008007F5D4012E03D1E86920F08050E86152
:1011D000E069A0B36968C1F38101022946D0022801
:1011E00005D0C8F86090FFF709FD04463AE0C8F85A
:1011F0006090FFF703FD064606E0FFF7FFFC801B4B
:10120000022801D90320A0E628688001F5D4206ACD
:10121000B0F5803F05D16868A16820F4003008432C
:101220006860D4E908010843696821F4741108432F
:101230006860C8F860A0FFF7E1FC044607E026E01C
:10124000FFF7DCFC001B022801D903207DE628689B
:101250008001F5D51BE0FFF7D1FC001B022801D966
:10126000032072E628688001F5D410E001280CD034
:101270006868226A00F48031914204D1616A00F406
:101280007010884203D001205FE601205DE6002057
:101290005BE600000010024000004242800442422F
:1012A0000070004010B5401EB0F1807F01D30120D6
:1012B00010BD4FF0E02460610F21601701F0B5FB15
:1012C0000020A06107202061002010BD70B50446F9
:1012D000002C04D094F83900002510B106E001205C
:1012E00070BD84F83850204600F022F8242084F89D
:1012F00039002068C16821F40051C160204600F027
:101300006FFF2068016921F4904101612068416903
:1013100021F02A0141612068C16841F40051C16097
:10132000E563202084F8390084F83A00002070BD7D
:1013300030B585B0002401940294039404940068AD
:101340001C49884234D11C48816941F48041816143
:10135000816901F480410091816941F0040181615A
:10136000806900F0040000904FF4007001900220AA
:10137000029003200490114D01A92846FFF746FB77
:10138000291501910294039401A92846FFF73EFB19
:101390000B490868C26842F40052C2600868C2681B
:1013A00042F02002C2600868416941F001014161D8
:1013B00005B030BD00380140001002400008014077
:1013C000880400202DE9F84F04460E46154698463D
:1013D00094F83A00202802D00220BDE8F88FFEB130
:1013E000F5B194F8380001281CD0012084F83800A9
:1013F0004FF0000AC4F83CA0222084F83A00FFF71E
:10140000FDFB8146A585E585A0684FF48057B8426D
:1014100001D1206940B13546002684F838A028E083
:101420000120DAE70220D8E70025F6E74B46002244
:1014300020212046CDF8008000F02EFF08B10320C7
:10144000CBE725B1A068B8421BD038B108E02068CE
:101450004068C0F3080026F8020B07E0206980B15D
:101460002068406800F07F0028706D1CE08D401EF1
:10147000E085E08D0028D9D1202084F83A000020B2
:10148000ABE7206840682870EFE72DE9F843044691
:101490000E4615461F4694F83900202802D0022037
:1014A000BDE8F883C6B1BDB194F83800012815D065
:1014B000012084F838004FF00009C4F83C90212046
:1014C00084F83900FFF79AFB8046A584E584A0687C
:1014D000B0F5805F04D005E00120E1E70220DFE7FE
:1014E000206920B13546002684F8389013E00025A5
:1014F000FAE74346002280212046009700F0CCFE08
:1015000008B10320CCE79DB1216815F8010B4860B4
:10151000E08C401EE084E08C0028EAD143460022A3
:1015200040212046009700F0B7FE40B10320B7E706
:1015300036F8020B2168C0F308004860E8E7202075
:1015400084F839000020ABE7FEE70000F0B50F4B50
:101550000022002500240A27B1FBF3F6303694461A
:10156000521C00F80C60B1FBF3F603FB1611B3FB41
:10157000F7F3861816F8016C302E00D125B16D1CDA
:10158000641C0A2CE8D3F0BD0022F9E700CA9A3B9C
:1015900010B5104C0E4820604FF4E1306060002020
:1015A000A060E06020610C216161A0612046FFF72E
:1015B0008DFE08B1FEF71DFE2068C16841F40051A0
:1015C000C1602068C16841F02001C16010BD000009
:1015D000003801408804002008B5002000904148F0
:1015E00000F05AFD404800F057FD404800F054FD1F
:1015F0003F4800F051FD3D4800F04EFD3D4800F0F1
:101600004BFD384800F048FD3BA000F045FDFEF7DB
:1016100049FE3B4C20603B4D4FF0FF363AA000F0B6
:101620003BFD49A000F038FD57A000F035FD66A055
:1016300000F032FD206818B173A000F02DFD02E02B
:1016400081A000F029FD90A000F026FD28684068E8
:101650003346012269462B48FFF7B4FE9DF800008F
:10166000312809D032280AD033280BD0342815D09D
:1016700095A000F011FDD1E700F0D8FBCEE700F017
:1016800093FCCBE7A0A000F007FDA8494868A06044
:101690006060096881F308888047BFE7206880B1EF
:1016A0000120FEF759FE18B1A1A000F0F5FCB5E746
:1016B000ABA000F0F1FCB2A000F0EEFCFFF738F9AF
:1016C000ACE70020FEF748FE18B1B5A000F0E4FC3E
:1016D000A4E7BEA000F0E0FCA9A000F0DDFCFFF74D
:1016E00027F99BE7082D0008242C0008D82B0008B8
:1016F000BC2C0008702C00080D0A0D0A0000000028
:1017000010000020880400200D0A3D3D3D3D3D3D78
:101710003D3D3D3D3D3D3D3D3D3D3D3D3D204D61E2
:10172000696E204D656E75203D3D3D3D3D3D3D3D25
:101730003D3D3D3D3D3D3D3D3D3D3D3D3D3D3D3DD9
:101740003D3D3D3D0D0A0A002020446F776E6C6FD1
:10175000616420696D61676520746F20746865201D
:10176000696E7465726E616C20466C617368202DC1
:101770002D2D2D2D2D2D2D2D2D2D2D2D2D2D2D2D99
:1017800020310D0A0A000000202055706C6F616442
:1017900020696D6167652066726F6D2074686520D1
:1017A000696E7465726E616C20466C617368202D81
:1017B0002D2D2D2D2D2D2D2D2D2D2D2D2D2D2D2D59
:1017C00020320D0A0A0000002020457865637574F8
:1017D0006520746865206C6F616465642061707059
:1017E0006C69636174696F6E202D2D2D2D2D2D2D4B
:1017F0002D2D2D2D2D2D2D2D2D2D2D2D2D2D2D2D19
:1018000020330D0A0A000000202044697361626CD5
:1018100065207468652077726974652070726F74D2
:10182000656374696F6E202D2D2D2D2D2D2D2D2D81
:101830002D2D2D2D2D2D2D2D2D2D2D2D2D2D2D2DD8
:1018400020340D0A0A0000002020456E61626C659C
:10185000207468652077726974652070726F746592
:101860006374696F6E202D2D2D2D2D2D2D2D2D2D79
:101870002D2D2D2D2D2D2D2D2D2D2D2D2D2D2D2D98
:1018800020340D0A0A0000003D3D3D3D3D3D3D3DFB
:101890003D3D3D3D3D3D3D3D3D3D3D3D3D3D3D3D78
:1018A0003D3D3D3D3D3D3D3D3D3D3D3D3D3D3D3D68
:1018B0003D3D3D3D3D3D3D3D3D3D3D3D3D3D3D3D58
:1018C0003D3D0D0A0A000000496E76616C69642096
:1018D0004E756D6265722021203D3D3E2054686545
:1018E000206E756D6265722073686F756C6420621E
:1018F000652065697468657220312C20322C203394
:10190000206F7220340D0000537461727420707265
:101910006F6772616D20657865637574696F6E2E8F
:101920002E2E2E2E2E0D0A0A000000000080000828
:101930004572726F723A20466C61736820777269E3
:10194000746520756E2D70726F74656374696F6E47
:10195000206661696C65642E2E2E0D0A0000000061
:1019600057726974652050726F74656374696F6E25
:101970002064697361626C65642E2E2E0D0A00006E
:1019800053797374656D2077696C6C206E6F772066
:10199000726573746172742E2E2E0D0A00000000A1
:1019A0004572726F723A20466C6173682077726973
:1019B00074652070726F74656374696F6E20666100
:1019C000696C65642E2E2E0D0A0000005772697432
:1019D000652050726F74656374696F6E20656E6107
:1019E000626C65642E2E2E0D0A000000FEE7704723
:1019F0007047FEB505460026012068700027AF70CD
:101A0000FF20E870002402E02B191871641C085DA7
:101A100008B1402CF8D32819077111466846FFF722
:101A200095FD641D684605E03146761C425C214602
:101A3000641C6A54815D0029F6D101E02F55641CB5
:101A4000842CFBD3FEBD70B54FF48065AB4201D34F
:101A50002C4600E08024A34200D32346AC4202D1AE
:101A600002254D7001E001254D708A70D243CA7085
:101A700004221D1D03E010F8016B8E54521CAA4273
:101A8000F9D3A34207D81B1D1A20241D01E0C85416
:101A90005B1CA342FBD370BD08B507494FF4FA5253
:101AA0000968B1FBF2F14143009100BF0098411E6B
:101AB0000091FAD208BD0000000000202DE9FC478B
:101AC00006468846914600240020C8F800004C20B5
:101AD000374F0090354B37A100203A6800F0CAF824
:101AE0004B46012201A93948FFF76CFC05464E2000
:101AF00000903A682D4B501C38602EA1002000F059
:101B0000B9F805BB9DF80400182826D006DC01288A
:101B10001ED002281ED0042804D104E041282BD076
:101B2000612829D001259DF804003070802C0AD34B
:101B3000201D82B24B46B11C2448FFF743FC0546EA
:101B400028001BD00024C8F800402846BDE8FC87C8
:101B50008024E8E74FF48064E5E74B46012201A9C1
:101B60001A48FFF72FFC18B99DF80400182801D077
:101B70000125D8E70224D6E70225D4E7F178B0782A
:101B800081F0FF01884202D000240125DBE73019F3
:101B900001790902407947182146301DFEF713FBF1
:101BA000B842D0D000240125CDE70000552B000815
:101BB0001C0000205B25645D2D2D5B25735D3C259D
:101BC000643E2D2D2D2D0D0A0000000088040020FC
:101BD0002DE9F04105460E4617460A4800780028D0
:101BE00001D100F09BFDEFF31184202383F31188D2
:101BF0003A463146284600F007F8E1B281F31188F1
:101C0000BDE8F081C804002070B50E46144618499E
:101C100000EB400001EBC00518356869002806D0CC
:101C2000012811D002281BD00024204670BD284670
:101C300000F0A8FDA04201D20024F6E7224631467A
:101C4000284600F0D0FEF0E7284600F09BFDA042B9
:101C500000D2044622463146284600F0C4FEE4E79E
:101C600022463146284600F090FE0446DDE700009B
:101C7000C80400200FB408B504A900916A4603996E
:101C800000F003F801B05DF814FB2DE9F04198B0C5
:101C900080460C46164603A8139040201490002757
:101CA0001597CDF85C80169714F8011B39B12529DA
:101CB00017D013A800F04AFE16980028F4DA1698F8
:101CC00000280ADD159820B103A94046159AFFF7B0
:101CD0007FFFDDE9151008441690169818B0BDE88E
:101CE000F081002101202278232A1ED02B2A18D02F
:101CF0002D2A0ED0302A10D000200028F3D12578CC
:101D0000A5F130020A2A14D3002322782E2A17D0F4
:101D100023E041F00101641CEFE741F00201641C83
:101D2000EBE741F00401641CE7E741F00801641CA3
:101D3000E3E7641C00EB800005EB40003038DEE791
:101D4000641C2578A5F130020A2A06D2641C03EB34
:101D5000830205EB4203303BF3E76C2D0DD0682D79
:101D60000BD0702D4ED00BDC252D58D0582D2FD0F8
:101D7000632D0CD0642D56D112E0641C2578ECE75D
:101D8000732D31D0752D17D0782D4CD120E03068CF
:101D9000011D31600078C1B213A800F0D7FD42E008
:101DA0003268151D35601568CDE900010A22294603
:101DB00013A800F0F3FC36E03268151D3560156895
:101DC000CDE900010A22294613A800F053FD2AE0BC
:101DD0003268151D35601568CDE9000110222946CD
:101DE00013A800F047FD1EE03068011D3160056852
:101DF00015F8011BB9B113A800F0A8FD169800282A
:101E0000F6DA10E03068011D316001680820CDE984
:101E100000070346102213A800F02CFD03E0252143
:101E200013A800F093FD641C46E770471FB500201F
:101E3000019002900390009019A000F02DF96846DF
:101E400000F06EFA48B105281ED0042820D00228E0
:101E500022D022A000F020F91FBD284800F01CF974
:101E6000274800F019F901A80099FFF76FFB25A09A
:101E700000F012F901A800F00FF925A000F00CF90C
:101E800026A000F009F91FBD2AA000F005F91FBD2A
:101E900038A000F001F91FBD3DA000F0FDF81FBD06
:101EA00057616974696E6720666F72207468652077
:101EB00066696C6520746F2062652073656E74209E
:101EC0002E2E2E20287072657373202761272074B0
:101ED0006F2061626F7274290A0D00000A0D46615D
:101EE000696C656420746F2072656365697665202E
:101EF0007468652066696C65210A0D00842B0008F2
:101F0000400000200A0D2053697A653A2000000045
:101F10002042797465730D0A000000002D2D2D2DCF
:101F20002D2D2D2D2D2D2D2D2D2D2D2D2D2D2D0A04
:101F3000000000000A0A0D54686520696D6167653C
:101F40002073697A65206973206869676865722003
:101F50007468616E2074686520616C6C6F7765646D
:101F6000207370616365206D656D6F7279210A0D54
:101F7000000000000A0A0D566572696669636174A3
:101F8000696F6E206661696C6564210A0D0000004E
:101F90000D0A0A41626F727465642062792075735C
:101FA00065722E0A0D00000008B5002000900FA0F9
:101FB00000F072F84FF0FF33012269461248FFF734
:101FC00001FA9DF8000043280AD14FF440520FA1B6
:101FD000144800F08FFA009018B113A000F05CF8DC
:101FE00008BD1CA000F058F808BD00000A0A0D53F7
:101FF000656C656374205265636569766520466922
:102000006C650A0D000000008804002055706C6F9C
:1020100061646564466C617368496D6167652E62D1
:10202000696E0000008000080A0D4572726F722010
:102030004F63637572726564207768696C652054BC
:1020400072616E736D697474696E672046696C6540
:102050000A0D00000A0D46696C652075706C6F6191
:10206000646564207375636365737366756C6C79FE
:10207000200A0D0001B5074890F83A10A02902D1B6
:10208000202180F83A106423012269460148FFF7B5
:10209000FCF908BD88040020002201E0521C92B225
:1020A000835C002BFAD1014664230148FFF7EDB9A8
:1020B00088040020F0B505460024002000222B787B
:1020C000302B50D16B78782B01D0582B4BD1022478
:1020D00018E0A3F141063746052E05D9203E052E0E
:1020E00002D93136092E18D8A3F13006092E01D8AD
:1020F000334604E0052F01D8373B00E0573B03EBA4
:102100000212641C0B2C02D22B5D002BE1D12B5D43
:10211000002B01D10A600120F0BD0020F7E72B5D04
:1021200023B16B2B05D04B2B03D007E00A600120B5
:1021300018E01CB192020A60012013E06D2B01D05F
:102140004D2B04D11CB112050A6001200AE0A3F155
:102150003006092E0CD802EB82026FF02F0606EB38
:1021600042021A44641C0B2CD6D20128D7D1F0BDF0
:102170000020F0BDFEF748BD30B58FB0282105A87E
:10218000FDF7F9FF14216846FDF7F5FF09200590DA
:102190004FF48031069100240794012009900B90A0
:1021A00002250C950D914FF4E0100E9005A8FEF756
:1021B000B7FE08B1FEF71DF80F20009001950294BC
:1021C0004FF480600390049402216846FEF79EFD60
:1021D000002801D0FEF70DF80FB030BD70470000A9
:1021E00070B5044620680169E26821F4405111434A
:1021F0000161A16820690143606901432068C268E8
:1022000041F20C639A430A43C26020684169A269A3
:1022100021F44071114341611E492068884202D176
:10222000FEF734FE01E0FEF721FE00EBC00101EBFA
:102230000010616864228900B0FBF1F3B3FBF2F394
:102240006FF018067343B0FBF1F5B0FBF1F605EB48
:102250008305322303EB0515B5FBF2F5B6FBF2F669
:1022600005F0F00505EB0615B0FBF1F6B0FBF1F05B
:10227000B0FBF2F06FF01801484306EB800003EB6F
:102280000010B0FBF2F0216800F00F0028448860D5
:1022900070BD0000003801402DE9F04104460E46B3
:1022A00017469846069D1DE0681C1BD02DB1FEF711
:1022B000A5FCA0EB0800A84214D92068C16821F44D
:1022C000D071C1602068416921F001014161202085
:1022D00084F8390084F83A00002084F8380003209C
:1022E000BDE8F0812068006836EA000004D00020D4
:1022F000B842D9D00020F3E70120F9E741F480711A
:1023000041F2210240004900CB0500D5401CC30327
:1023100000D55040CB03F5D580B27047FEE70000F2
:102320002DE9F04F89B082464FF000090026B346F0
:102330000024DFF88481B7E000250027B0E04FF4E7
:102340007A7208A95D48FFF7B9FB70B102286BD01B
:10235000BBF1000F00D0761C052E66D91820FFF7C0
:1023600089FE1820FFF786FE9AE00026089870B1D3
:10237000022807D051498A78AA420DD01520FFF7CC
:1023800079FE8DE00620FFF775FE022488E0062026
:10239000FFF770FE012783E08DB1091D82084046DA
:1023A000FDF7A0FFF0B31820FFF764FE1820FFF739
:1023B00061FE04246D1CEDB24FF0010B70E0087952
:1023C00088B30023091D3E4A04E09C465B1C02F8CA
:1023D0000C00491C087808B1402BF6D34FF0000CD4
:1023E00002F803C00020491C03AB04E08346401CF4
:1023F00003F80B20491C0A78202A01D01028F5D3B5
:1024000003F800C007A903A8FFF754FEDAF800009C
:1024100043F20101884214D9182002900C0523468A
:10242000012203E020E019E024E036E002A925487B
:10243000FFF72BF82346012202A92248FFF725F8CF
:1024400005241D48FDF7D6FE0798CAF800000620AF
:10245000FFF710FE4320FFF70DFEABE70620FFF766
:1024600009FE0127B9461BE0089880440620FFF7C3
:1024700001FE9FE71820FFF7FDFD1820FFF7FAFD8A
:10248000022418204FF4D171CDE900100E4B3246D2
:102490000EA10020FFF7EEFB02E04320FFF7EAFD6C
:1024A00057EA04003FF44BAF59EA04003FF444AF4D
:1024B00009B02046BDE8F08F0080000880000020B1
:1024C0004000002088040020632B00085B25645D29
:1024D0002D2D5B25735D3C25643E2D2D48414C5FC1
:1024E000425553593A20307825303278202D2D0D21
:1024F0000A0000002DE9F84F824693460026002787
:10250000002401255A468348FFF773FA23E0DFF8D9
:1025100004824FF480194B46832208F101017E4862
:10252000FEF7B3FF802108F10400FDF74CFE804662
:102530004FEA1820FFF79EFD08F0FF00FFF79AFD15
:102540004B46012269467448FEF73CFF38B1761CC1
:10255000052E00D3012457EA0400D8D059E09DF895
:102560000000062815D01828F2D14B4601226946F2
:102570006948FEF727FF0028EAD19DF800001828D7
:10258000E6D10220FEF7EEF86348006840680224B6
:10259000DEE70127DCE7EAB25B465E495046FFF71B
:1025A00052FA4FF0000800208DF8000000272DE0BF
:1025B0004FF48066B34500D28026F01CDFF85491BA
:1025C00082B24FF4801309F101015348FEF75DFF19
:1025D000314609F10400FDF7F6FD81464FEA192066
:1025E000FFF748FD09F0FF00FFF744FD4FF48013AB
:1025F000012269464848FEF7E5FE18B99DF800003B
:10260000062811D07F1C052F00D3012458EA0400AE
:10261000CED0BBF1000F01D0002CBCD0002600278B
:102620008DF80070002520E04FF00108B34508D96F
:10263000B244ABEB060B0C2D01D06D1CE3E7052477
:10264000E1E7B2444FF0000BDDE70420FFF712FD95
:102650004FF480184346012269462F48FEF7B2FE28
:1026600040B16D1C052D00D3012456EA0400ECD0C6
:10267000E4B14CE09DF80000062815D01828F1D1EF
:102680004346012269462448FEF79CFE0028E9D112
:102690009DF800001828E5D10220FEF763F81E48D7
:1026A000006840680224DDE70126DBE7194D0120C0
:1026B0006870AF70FF20E87004202F54401CC0B237
:1026C0008428FAD34FF4801633468322691C1248BB
:1026D000FEF7DBFE8021281DFDF775FD0546280A63
:1026E000FFF7C8FCE8B2FFF7C5FC33460122694694
:1026F0000948FEF767FE50B99DF80000182806D17A
:102700000220FEF72FF804480068406802242046A3
:10271000BDE8F88F800000208804002010B5124C1E
:1027200003202061606111A0A06104F1A800E061B4
:102730004FF4806020620021A1626162E1620BA01F
:10274000206604F5956060661020A0662167E1664A
:10275000616709A1E01DFDF719FD08A12046FDF7FD
:1027600015FD2020A07110BDC80400205465726DB5
:10277000696E616C00000000525454005345474795
:10278000455200000169C268914204D88068801AED
:102790000844401E7047881A401E70472DE9FC5FB0
:1027A0000646DDE90C480F4692469946C7F1000BF4
:1027B000002F01DA584600E03846012502E090FB80
:1027C000FAF06D1C5045FADAA94500D94D462CB1F6
:1027D000002F02DB5FEA487000D5641E5FEA887054
:1027E00002D5B9F1000F0FD05FEAC8700CD144B91F
:1027F0000AE0641E2021304600F0A8F8F0680028A6
:1028000002DB0CB1A542F4D3F068002830DB002FC6
:1028100005DA5F462D21304600F098F806E05FEAC1
:10282000487003D52B21304600F090F8F06800285E
:102830001EDB08F0030002280FD1B9F1000F0CD104
:1028400044B90AE0641E3021304600F07FF8F06899
:10285000002802DB0CB1A542F4D3F068002807DBA6
:10286000CDE900484B4652463946304600F002F862
:10287000BDE8FC9F2DE9F84F8246DDE90A4B88460A
:102880001746994640460125012602E0B0FBF7F0C5
:10289000761CB842FAD2B14500D94E465FEACB70F9
:1028A00018D1BCB15FEA8B7002D5B9F1000F02D02C
:1028B000202000900BE03020009008E0641E50467D
:1028C000009900F043F8DAF80C00002802DB0CB1A4
:1028D000A642F3D3DAF80C0000280CDABDE8F88F32
:1028E000A9F1010906E0B8FBF5F0B84202D2DFF821
:1028F000589004E07D43B9F1010FF4D9F0E7B8FB3B
:10290000F5F000FB158819F80010504600F01EF88D
:10291000DAF80C00002803DBB5FBF7F5002DEED14B
:102920005FEACB70DAD04CB9D8E7641E202150465C
:1029300000F00CF8DAF80C000028CFDB002CCDD02A
:10294000A642F2D3CAE70000722B000810B5044675
:10295000A0686368421C934205D323681954A2609F
:10296000E068401CE060D4E90102824209D121689C
:102970002069FFF72DF9A168884203D04FF0FF309E
:10298000E06010BD0020A06010BD2DE9F0470546B5
:10299000894617464FF00008EC682869A04202D922
:1029A000061B761E03E0A968201A0E1A761EA86878
:1029B000001BB04200D80646BE4200D33E466868BF
:1029C000324620444946FDF7BDFBB044B144BF1B2D
:1029D0003444A868A04200D10024EC60002FDCD170
:1029E0004046BDE8F0872DE9F0410446884616468A
:1029F000E768A068C51BE1686068B542084407D96C
:102A000032464146FDF79EFBB819E060BDE8F08113
:102A10002A464146FDF796FB761B08EB0501324638
:102A20006068FDF78FFBE660F0E70907090E0028F4
:102A300004DB00F1E02080F80014704700F00F0084
:102A400000F1E02080F8141D704702E008C8121F52
:102A500008C1002AFAD170477047002001E001C187
:102A6000121F002AFBD17047FEF7D6F8FFF784FB50
:102A7000FDF72CFCFEF78CFD0FA10020FFF7FAF804
:102A800012A10020FFF7F6F814A10020FFF7F2F8DA
:102A9000FEF7A2FD16490868164A1040B0F1005F23
:102AA00008D14868144A1060144A1060096881F31C
:102AB00008888047FEE700002D2D2D2D2D626F6FB9
:102AC000742D2D2D2D2D0D0A000000002D2D6D6172
:102AD000696E20537461722D2D0D0A002D2D2D2D40
:102AE0002D2D2D2D2D2D2D2D2D2D0D0A000000000D
:102AF000008000080000FE2F1800002014000020B5
:102B0000000000000000000001020304060708099D
:102B10000000000001020304464C4153485F49662F
:102B20005F457261736500464C4153485F49665F7B
:102B3000577269746500464C4153485F49665F5758
:102B40007269746550726F74656374696F6E436FF8
:102B50006E66696700526563656976655061636B8F
:102B6000657400596D6F64656D5F52656365697664
:102B700065003031323334353637383941424344D9
:102B8000454600000A0A0D2050726F6772616D6D34
:102B9000696E6720436F6D706C6574656420537552
:102BA000636365737366756C6C79210A0D2D2D2D29
:102BB0002D2D2D2D2D2D2D2D2D2D2D2D2D2D2D2D45
:102BC0002D2D2D2D2D2D2D2D2D2D2D2D2D0D0A2085
:102BD0004E616D653A2000000D0A3D202020202026
:102BE00020202020202020202020202020202020E5
:102BF00020202020202020202020202020202020D5
:102C000020202020202020202020202020202020C4
:102C10002020202020202020202020202020203D97
:102C2000000000000D0A3D20202020202020202030
:102C3000202020202028432920434F505952494723
:102C4000485420323031352053544D6963726F65DA
:102C50006C656374726F6E6963732020202020207E
:102C600020202020202020202020203D00000000C7
:102C70000D0A3D2020202020202020202020202060
:102C80002020202020202020202020202020202044
:102C90002020202020204279204D43442041707084
:102CA0006C69636174696F6E205465616D202020CA
:102CB000202020202020203D000000000D0A3D2083
:102CC0002053544D33324631787820496E2D41706F
:102CD000706C69636174696F6E2050726F677261A6
:102CE0006D6D696E67204170706C69636174696FA6
:102CF0006E20202856657273696F6E20312E302E3B
:102D00003029203D000000000D0A3D3D3D3D3D3D88
:102D10003D3D3D3D3D3D3D3D3D3D3D3D3D3D3D3DE3
:102D20003D3D3D3D3D3D3D3D3D3D3D3D3D3D3D3DD3
:102D30003D3D3D3D3D3D3D3D3D3D3D3D3D3D3D3DC3
:102D40003D3D3D3D3D3D3D3D3D3D3D3D3D3D3D3DB3
:102D500000000000742D000800000020200000008A
:102D60004A2A0008942D000820000020600D000071
:102D70005A2A00080024F40001000000100000009E
:102D80000000000000000000000000000000000043
:042D9000000000003F
:04000005080000ED02
:00000001FF
